:060000000A128A110C280F
:10000800FE00030EF0000A08F1000A128A11B62851
:100018000A128A110F28F801F901FA0183010A125C
:100028008A1116280A128A1159200A128A11831273
:1000380003138512C73083120313A0002328A00BD3
:10004800222826288312031306080A128A11BD20C3
:100058000A128A110A128A11A6200A128A11831218
:1000680003138800C73083120313A0003B28A00B9A
:100078003A283E288312031385160330831203138C
:10008800A2008A30A1005530A000A00B4928A10B7E
:100098004928A20B4928013083120313A000200825
:1000A80086071B280A128A110C2883160313880155
:1000B80010308700851201308312031385008316E0
:1000C800031789018316031386018312031386011C
:1000D80002300A128A1198200A128A118030F6001A
:1000E8007608F2001030F7007708F300F4012030AA
:1000F8000A128A1182200A128A110800F500831652
:1001080003138712751D89288A288E28740894007D
:10011800871592287208740494008711750873046F
:100128008312031394000800F30073080739F200E0
:10013800F20E831603130F0872068F3972068F00AA
:100148000F1408000A128A11AF200A128A118312AA
:1001580003131308080083160313141CB428B528C6
:10016800AF28080071088A00700E8300FE0E7E0E0C
:0E0178000900F20072088312031393000800BE
:08400000FF3FFF3FFF3FFF3FC0
:04400E00D520FF3F7B
:00000001FF
